:020000040800F2
:10000000584100206D020008954000085D3B000843
:1000100091400008210800089556000800000000E3
:100020000000000000000000000000008D410008FA
:1000300025080008000000009940000891410008D0
:1000400089020008890200088902000800000000F7
:1000500089020008890200088902000800000000E7
:1000600089020008890200080000000089020008D7
:100070008902000889020008890200088902000834
:100080008902000889020008890200088902000824
:100090008902000889020008890200088902000814
:1000A0008902000889020008890200088902000804
:1000B00089020008890200088902000889020008F4
:1000C00089020008890200088902000889020008E4
:1000D0000000000089020008890200088902000867
:1000E00089020008890200088902000889020008C4
:1000F0008902000889020008890200080000000047
:100100000000000089020008890200088902000836
:100110008902000889020008890200088902000893
:10012000890200088902000889560008890200082F
:100130008902000800000000000000008902000899
:10014000890200080000000000000000000000001C
:10015000000000000000000089020008000000000C
:100160000000000000000000890200088902000869
:10017000000000000000000000000000000000007F
:10018000000000000000000000000000000000006F
:10019000000000000000000000000000000000005F
:1001A0000000000000000000890200088902000829
:1001B00089020008890200088902000889020008F3
:1001C0008902000889020008000000000000000009
:1001D000000000000000000000000000890200088C
:1001E000890200080000000000000000000000007C
:1001F00000000000000000000000000000000000FF
:1002000000000000890200088902000800000000C8
:10021000000000008902000800000000000000004B
:10022000000000000000000000000000890200083B
:10023000890200080000000000000000000000002B
:10024000000000000000000000000000890200081B
:100250008902000889020008DFF80CD000F05EFA7D
:1002600000480047DD5A00085841002007488047F1
:1002700007480047FEE7FEE7FEE7FEE7FEE7FEE78A
:10028000FEE7FEE7FEE7FEE7FEE700005D4200084E
:10029000590200082DE9F05F0546002092469B4672
:1002A00088460646814640241BE02846414647468C
:1002B000224600F06AF853465A46C01A914110D3BC
:1002C00011461846224600F051F82D1A67EB010836
:1002D0004F4622460120002100F048F817EB0009A4
:1002E0004E41201EA4F10104DFDC484631462A4677
:1002F0004346BDE8F09FD2B201E000F8012B491E51
:10030000FBD270470022F6E710B513460A460446B2
:100310001946FFF7F0FF204610BD00F0004230F014
:1003200000400AD0C10D01F56071C0F3160042EA29
:100330000151C20840071143704700200146704731
:1003400030B50B46014600202022012409E021FAA5
:1003500002F59D4205D303FA02F5491B04FA02F5A2
:100360002844151EA2F10102F1DC30BD202A04DB75
:10037000203A00FA02F1002070479140C2F12003B8
:1003800020FA03F3194390407047202A04DB203AF7
:1003900021FA02F00021704721FA02F3D040C2F1A5
:1003A000200291400843194670472DE9FE4F8046D0
:1003B00081EA0300C00F0C46009021F0004123F0B9
:1003C0000045B8EB0200A94105D2404621469046BF
:1003D0001C460B46024623F00040104347D0270D31
:1003E000C7F30A00C3F30A510290401A0190402853
:1003F0006BDAC3F3130040F4801B0098924620B1DF
:100400000023D2EB030A63EB0B0B01985946C0F1B2
:1004100040025046FFF7AAFF06460D465046594691
:10042000019A00F08DF910EB08006141002487EA81
:10043000115284EAE7731A4340D0009A62B3019ADA
:10044000012A4FEA075215DC001B61EB02014FF055
:10045000004202EA0752CDE90042001C41F580113A
:1004600032462B4600F08DF903B0BDE8F08F4046D0
:100470002146F9E7001B61EB0201001C41F58013E6
:1004800000185B412018A2F5001747EB030140EA72
:10049000D570B6196D4111E06D084FEA360645EA90
:1004A000C0754FEA0752001B61EB0201001C41F5C9
:1004B000801149084FEA30000019514132462B465D
:1004C00003B0BDE8F04F00F04DB9009801224000A4
:1004D0000023D0EB020263EBE073009821464FEA61
:1004E000E074B8EB000061EB0401E9E783F000433E
:1004F0005BE781F0004158E72DE9FE4F81EA0304F4
:1005000004F0004421F0004100944FF0000B23F070
:10051000004350EA01045ED052EA03045BD0C3F307
:100520000A54C1F30A552C44A4F2F3340194A0FBFD
:100530000254C1F3130141F48011C3F3130343F4D4
:10054000801301FB024400FB034E840A970A44EA2D
:10055000815447EA8357A4FB076802958D0A05FB7F
:1005600007854FEA932C04FB0C542705029D4FEAA4
:10057000065847EA1637B5EB08056EEB070C870EF1
:10058000920E47EA811742EA8312A7FB0201B6EBFB
:100590000B0164EB00042B0D43EA0C335E1844EBB3
:1005A0001C50DA465146E7FB0201C5F313044FEA3B
:1005B0000B3343EA14534FEA0432019C43EA060327
:1005C000A4F10C040294009CCDE900B400F0D9F829
:1005D00003B0BDE8F08F00200146F9E72DE9F04DAA
:1005E00081EA030404F0004B21F0004514464FF06B
:1005F000000A23F0004150EA050220D054EA01022B
:100600001DD0C5F30A570246C5F31303C1F3130007
:10061000C1F30A5640F4801543F48013A7EB060893
:10062000101BD64608F2FD3873EB050002D308F123
:10063000010801E092185B41B8F1000F03DA0020D5
:100640000146BDE8F08D00204FF480110646844637
:100650000EE0171B73EB050705D3121B63EB0503B5
:1006600006434CEA010C49084FEA300092185B41FE
:1006700050EA0107EDD152EA030012D082EA0400E9
:1006800083EA0501084305D0101BAB4106D20122C5
:10069000002306E000224FF0004302E06FF0010269
:1006A00053101AEB06004CEB085110EB0A0041EB1B
:1006B0000B01BDE8F04D00F055B8C1F30A52C1F38B
:1006C000130140F2FF3341F480119A4202DA002014
:1006D0000146704740F233439A42A2F2334202DCB1
:1006E0005242FFF752BEFFF741BE000030B5041E74
:1006F00071F1000404DB4FF00044404264EB01015F
:10070000141E73F1000405DB1C464FF000435242F7
:1007100063EB0403994208BF904230BD064C074D7D
:1007200006E0E06840F0010394E8070098471034C1
:10073000AC42F6D3FFF794FD186900083869000849
:10074000202A06DBCB17203A41FA02F043EAE07395
:1007500006E041FA02F3D040C2F120029140084382
:100760001946704710B5141E73F1000408DA401CD6
:1007700041F1000192185B411A4301D120F00100C0
:1007800010BD2DE9F04D92469B4611B1B1FA81F2B0
:1007900002E0B0FA80F220329046FFF7E7FD04460F
:1007A0000F4640EA0A0041EA0B0153465A46084305
:1007B00013D0114653EA010019D0C8F14002504647
:1007C000FFF7E3FD05460E46504659464246FFF701
:1007D000CDFD084305D0012004E020463946BDE8A0
:1007E000F08D0020054346EAE0762C4337430A9813
:1007F0006305E40AA0EB08000022FD0A44EA47541E
:100800000A3002D500200146E9E7010510196941C7
:10081000DDE9084500196941BDE8F04DA2E7000097
:10082000FEE700007047000072B600BFFEE7000060
:10083000B0B5044600F04EF9002C04BF0120B0BD55
:10084000054694F8540002282ED12168486940F0EA
:1008500004004861052084F854000869800408D425
:1008600000F038F9401B052826D821680869800463
:10087000F6D54869012240F002004861042084F85E
:1008800054004FF4FE40C86084F8542094F850009F
:1008900000064FF0000002D5636F1A7388640021D0
:1008A00084F84C10B0BD00BF2020A06501200021BD
:1008B00084F84C10B0BD00BFA06D40F01000A065E2
:1008C000032084F8540094F8500000064FF0010013
:1008D00044BF616F0873002184F84C10B0BD000064
:1008E000002804BF0120704790F8541002290BD152
:1008F000042180F85410006842F204024169114357
:1009000041610020704700BF2021816501207047B0
:10091000B0B5044600F0DEF8054640F20400C2F22D
:1009200000000078611C18BF044400BF00F0D2F83A
:10093000401BA042FAD3B0BD2DE9F04F81B00B6847
:10094000002B00F0BD8047F67F72C0F22F0202EA52
:1009500090224FF0000B00260027012400920BE0AC
:100960000B68083733FA04F504F1010406F10206B6
:100970000BF1040B00F0A480A4F10108012202FA9B
:1009800008FC13EA0C02EBD0D1F804E04EF010039F
:10099000122B18D16FF0030303EA58030BF01C0568
:1009A00000EB030ADAF820E00F23D1F81090AB40F7
:1009B0002EEA030E09F00F03AB4043EA0E03CAF818
:1009C0002030D1F804E003680325B5400EF0030998
:1009D0006FEA050AAB4309FA06F52B43BEF1120F85
:1009E000036065D8012303FA0EF313F0061F5FD0EE
:1009F0008368CD6803EA0A03B5402B4383604368EC
:100A00004FEA1E1523EA0C0305FA08F52B43436051
:100A1000C3688D6803EA0A03B5402B43C3605FEAED
:100A2000CE039DD528F0030342F20008C4F2024829
:100A300008EB030EDEF860C007F018050F23AB408B
:100A40002CEA030C009B03FA05F54CEA0503CEF8EB
:100A50006030D8F800C0D1F804E04CEA02055FEA43
:100A6000CE2358BF2CEA0205C8F80050D8F804C0BD
:100A70005FEA8E234CEA020558BF2CEA0205C8F84B
:100A80000450D8F884C05FEA8E334CEA020558BFA0
:100A90002CEA0205C8F88450D8F880C05FEACE334B
:100AA0004CEA020558BF2CEA0205C8F8805057E707
:100AB000B9F1030FACD18B68012BA9D1AFE700BF0F
:100AC00001B0BDE8F08F00001823002A08BF2823DA
:100AD000C150704740F25010C2F2000000687047E9
:100AE00090F84120202A03D190F84020012A01D11A
:100AF00002207047242280F841200268136823F006
:100B000001031360136823F48053136013681943BF
:100B10001160116841F001011160202180F841103D
:100B2000002180F8401008467047000090F84120EE
:100B3000202A03D190F84020012A01D102207047D9
:100B4000242280F841200268136823F00103136017
:100B5000136823F4706343EA01211160116841F0C6
:100B600001011160202180F84110002180F840101F
:100B700008467047002804BF0120704710B504469E
:100B800090F8410028B9002084F84000204600F089
:100B900083FA242084F8410094E80910E26801688F
:100BA000012A21F00101016023F070610161816877
:100BB00021F40041816003D14CF40041816009E0DF
:100BC0004CF40441022A816004D1416841F400617F
:100BD00003E000BF416821F400614160416804F115
:100BE000100341F0007141F400414160C16821F4FB
:100BF0000041C1600ECB114341EA0321E269C160AB
:100C0000216A11430160016841F001010160002087
:100C10002021606484F84110206384F8420010BDF4
:100C20002DE9F04F81B0044690F8410020280DD105
:100C3000DDF828A0BAF1000F0CD0DDF82CB0BBF124
:100C4000000F07D094F8400001280BD1022001B01A
:100C5000BDE8F08F4FF400706064012001B0BDE882
:100C6000F08F00BF01201D461746894684F84000DA
:100C7000FFF730FF216806468A69120447D4222014
:100C80000C9A84F8410040204FF0000884F842009C
:100C9000C4F84480C4F824A0A4F82AB0C4F834806E
:100CA00093466FF39F29E8B24A6849F6000ACFF6E7
:100CB000004A49EA004002EA0A02104400F50050E6
:100CC000486020465946324603F0BCF8A8B9012DC9
:100CD00008D02068390A816220465946324603F01E
:100CE000B1F850B92068F9B2816220464021002253
:100CF0005B46009602F0E4FF50B384F84080012088
:100D000001B0BDE8F08F00BF88690004B7D5204668
:100D10001921324602F024FF00289ED1FFF7DAFEA7
:100D2000801B21681A28EFD388690004ECD5606C19
:100D300040F020006064202084F84100002084F806
:100D4000420084F84000012001B0BDE8F08F00BFF0
:100D5000608D5F4640F2000BB0F5807FC0F2FF1B54
:100D60000AD320680BF5105350F8041F4D4601EAD2
:100D70000A02FF210BE000BF618D2068CAB250F863
:100D8000043F49EA024203EA0A050BF592332A437B
:100D90001A434FF0FF080AF58065026021850FE0D5
:100DA000618D2068218550F8042FC9B249EA0141BC
:100DB0002A404FF00073114319430160608D98B3CE
:100DC0002046042100223B46009602F079FF0028CD
:100DD0007FF443AF2068616A406A0870606A218DC1
:100DE00001306062481E2085618D01396185618D09
:100DF0000029E3D00004E1D12046802100223B46B7
:100E0000009602F05DFF00287FF427AF608DB0F5FB
:100E1000807FC5D32068A4F8288050F8041F4A4674
:100E200029405B46C7E700BF20463946324602F0FC
:100E3000C9FF00287FF411AF20682021C1614268FA
:100E40004EF60003CFF600631A404260002084F89B
:100E5000411084F8420084F8400001B0BDE8F08FF2
:100E60002DE9F04F81B0044690F8410020280DD1C3
:100E7000DDF828A0BAF1000F0CD0DDF82CB0BBF1E2
:100E8000000F07D094F8400001280BD1022001B0D8
:100E9000BDE8F08F4FF400706064012001B0BDE840
:100EA000F08F00BF01201D461746894684F8400098
:100EB000FFF710FE216806468A69120449D42120F2
:100EC0000C9A84F8410040204FF0000884F842005A
:100ED000C4F84480C4F824A0A4F82AB0C4F834802C
:100EE00049F6004A93466FF39F29E8B2CFF6004ACD
:100EF0004A6849EA0040AAF580631A40104440F06D
:100F0000807040F40050486020465946324602F056
:100F100099FFA8B9012D08D02068390A81622046BE
:100F20005946324602F08EFF50B92068F9B281620C
:100F30002046802100225B46009602F0C1FE48B3A5
:100F400084F84080012001B0BDE8F08F886900047A
:100F5000B5D520461921324602F002FE00289CD168
:100F6000FFF7B8FD801B21681A28EFD388690004B9
:100F7000ECD5606C40F020006064202084F84100D3
:100F8000002084F8420084F84000012001B0BDE850
:100F9000F08F00BF608D40F20008B0F5807FC0F296
:100FA000FF1809D320684B4650F8041F454601EA54
:100FB0000A02FF210BE000BF618D2068CAB250F821
:100FC000043F49EA024203EA0A034FF000751A435C
:100FD0002A43FF270260218511E000BF618D206850
:100FE000218550F8042FC9B249EA014102EA0A02F8
:100FF0004FF00073114319430160608D80B32046A8
:101000005946324602F01EFF00287FF446AF606A60
:10101000226810F8011B91626062608D0138608562
:10102000208D01382085618D0029E6D00004E4D1AF
:101030002046802100225B46009602F041FE0028F7
:101040007FF42BAF608DB0F5807FC7D320682785F4
:1010500050F8041F4A4601EA0A014346CAE700BFA6
:1010600020465946324602F0ADFE00287FF415AF07
:1010700020682021C16142684EF60003CFF600636C
:101080001A404260002084F8411084F8420084F83D
:10109000400001B0BDE8F08FB0B5AAB0044602A888
:1010A00008308021FFF72EF9206845F20041C4F294
:1010B0000001884202D02AB0B0BD00BF4FF40050FA
:1010C0000024029002A8039400F092FE002818BFAA
:1010D000FFF7AAFB40F68C45C4F20245286825A913
:1010E00040F002002860286800F002002590259852
:1010F000C02025901220CDE926040420299040F23A
:101100000040C4F202202894FFF716FC286940F43E
:1011100000102861286900F40010019001982AB09D
:10112000B0BD000040F20041C4F203010A68D207DA
:101130001CBF012070470A6822F0040210430860B7
:101140000020704740F20041C4F20301086840F0FB
:10115000010200200A60704740F2040040F2501182
:10116000C2F20000C2F2000100780A681044086070
:101170007047000080B5032000F0B6F801F056FB80
:1011800040F62041C4F20241096846F68C0201F0A3
:101190000F01C0F60002515CC84040F20C01C2F2DF
:1011A00000010860042001F0FDFE0F2000F008F8A7
:1011B00000281CBF012080BD00F058F8002080BD31
:1011C00070B540F20406C2F200063178E1B304467D
:1011D0004EF21000CEF200000068400710D401F07B
:1011E0003BFF02281CD0012822D078BB40F20C0023
:1011F000C2F20000006831784FF4FA5207E000BFF5
:1012000040F20C00C2F2000000684FF47A72B2FBA8
:10121000F1F1B0FBF1F001F00DFFA8B91BE000BF48
:1012200030784FF47A71B1FBF0F04FF4004106E0F2
:1012300030784FF47A71B1FBF0F04FF4FA41B1FB22
:10124000F0F001F0F7FE30B1012070BD002001F098
:10125000F1FE0028F8D14FF0FF3021460022002592
:1012600000F016F82846746070BD0000704700005A
:10127000002848BF704700F01F01012202FA01F167
:101280004EF200124009CEF2000242F820107047E0
:1012900010B54EF60C5CCEF2000CDCF80030C3F357
:1012A000022E8EF00704042C28BF0424BEF1030391
:1012B0004FF0FF3E38BF00230EFA04F4A1439940DB
:1012C0000EFA03F39A43114300F00F02043A62440A
:1012D00009010C3200F16043B0F1FF3FC8BF03F5D4
:1012E0006442117010BD00004EF60C51CEF20001A8
:1012F0000A684FF6FF031A4060F30A2242F080604A
:1013000040F0FD700860704710B540F6284CC4F2FC
:10131000024CDCF80CE0DCF80010DCF80020C2F332
:101320000523DCF80020DCF81040DBB3C2F3001228
:10133000C4F3CC0401F0030104FB02F2032900EE24
:10134000102A6FF35F2EB8EE400A31D0022935D053
:1013500001295CF8281C49F20002C1F3C101C0F266
:10136000D03222FA01F101EE101A02EE103AB8EE74
:10137000411AB8EE422A9FED4F3A81EE021A02EE70
:1013800010EA20EE030AB8EE422A30EE020AB7EE67
:10139000002A30EE022A5CF8281C22EE010A89019C
:1013A0002CD527E00021C0E90011816010BD00BFED
:1013B00001EE103A9FED3E2A04E000BF01EE103A24
:1013C0009FED3D2AB8EE411A82EE012A01EE10EAA5
:1013D0009FED383AB8EE411A20EE030A30EE010ACA
:1013E000B7EE001A30EE011A5CF8281C22EE010A52
:1013F000890103D5DCF80010C90307D4002101607E
:101400005CF8281C890118D41BE000BFDCF80C1024
:10141000B7EE002AC1F3462101EE101AB8EE411AC8
:1014200031EE021A80EE011ABCEEC11A11EE101A4A
:1014300001605CF8281C890103D5DCF800108903E1
:1014400002D4002112E000BFDCF80C10B7EE002A35
:10145000C1F3064101EE101AB8EE411A31EE021A3C
:1014600080EE011ABCEEC11A11EE101A41605CF850
:10147000281C890144BFDCF800105FEA413103D425
:101480000021816010BD00BFDCF80C10B7EE002A0F
:10149000C1F3066101EE101AB8EE411A31EE021ADC
:1014A00080EE010ABCEEC00A10EE101A816010BD79
:1014B00020BCBE4B000000390024744A10B540F631
:1014C0002C4CC4F2024CDCF810E0DCF80010DCF824
:1014D0000020C2F30523DCF80020DCF81440DBB365
:1014E000C2F30012C4F3CC0401F0030104FB02F2C6
:1014F000032900EE102A6FF35F2EB8EE400A31D0B8
:10150000022935D001295CF82C1C49F20002C1F3F4
:10151000C101C0F2D03222FA01F101EE101A02EE3E
:10152000103AB8EE411AB8EE422A9FED4F3A81EEDA
:10153000021A02EE10EA20EE030AB8EE422A30EE5A
:10154000020AB7EE002A30EE022A5CF82C1C22EECA
:10155000010A09012CD527E00021C0E900118160B2
:1015600010BD00BF01EE103A9FED3E2A04E000BF1F
:1015700001EE103A9FED3D2AB8EE411A82EE012AA3
:1015800001EE10EA9FED383AB8EE411A20EE030A58
:1015900030EE010AB7EE001A30EE011A5CF82C1C8E
:1015A00022EE010A090103D5DCF80010C90307D4B3
:1015B000002101605CF82C1C090118D41BE000BF5D
:1015C000DCF81010B7EE002AC1F3462101EE101A24
:1015D000B8EE411A31EE021A80EE011ABCEEC11AC1
:1015E00011EE101A01605CF82C1C090103D5DCF81F
:1015F0000010890302D4002112E000BFDCF81010B3
:10160000B7EE002AC1F3064101EE101AB8EE411AF6
:1016100031EE021A80EE011ABCEEC11A11EE101A58
:1016200041605CF82C1C090144BFDCF800105FEA43
:10163000413103D40021816010BD00BFDCF81010DF
:10164000B7EE002AC1F3066101EE101AB8EE411A96
:1016500031EE021A80EE010ABCEEC00A10EE101A3A
:10166000816010BD20BCBE4B000000390024744ACC
:1016700080B584B04FF6FF730246C0F21F0300200E
:101680009B1A70EB010347DA6FF060439B1A70EB13
:101690000103C0F287806FF07C439B1A4FF0000378
:1016A0008B4180F2DD8082F080630B4300F08E81FD
:1016B00082F000630B4300F09F8182F0805211435F
:1016C00040F0AC8240F60041C4F20241D1F8E000A3
:1016D000C0F3C202042A00F2C98248F20000C0F23C
:1016E000BB00DFE812F0D2029502C3029B020500A4
:1016F000D1F8E8200B6808689B0702F0404202D549
:10170000002A00F04F83800540F12883B2F1804F1A
:1017100000F03B8322E300BF41F6FF739B1A70EB9E
:1017200001036BDA4FF6FF739B1A4FF000038B41F6
:1017300080F2D88082F480330B4300F0878182F4FA
:1017400000330B4300F09E8182F48022114340F06D
:10175000658240F60041C4F20241D1F8DC00C0F3DA
:1017600002320020052A00F25982DFE812F07302EB
:10177000510257029B02A302070000BFD1F8E820E4
:101780000B6808689B0702F0404202D5002A00F06F
:101790000983800540F1E282B2F1804F00F0F582CA
:1017A000DCE200BF0F2940F3C58081F01003134332
:1017B00000F0828181F40073134300F09D8181F475
:1017C0008051114340F02A8240F60041C4F20241A8
:1017D000D1F8E40000F04062B2F1806F00F0FE81C9
:1017E000002A00F06381086880074FF0000040F194
:1017F0001582B2F1006F00F042810FE2D2F10303D3
:101800004FF000038B41C0F2B58082F001030B431F
:1018100000F0928182F00202114340F0FF8140F615
:101820000040C4F20240D0F8D81011F0380100F0A6
:1018300011820268120102D5082900F01B82036898
:1018400002689B0702D5182900F00082920502D594
:10185000202900F09A82D0F8F0002839B0E200BFC9
:1018600082F400130B4300F0878182F00072114371
:1018700040F0D48140F60041C4F20241D1F8F000BA
:10188000D1F8F020920700F4407206D5B2F5807FBF
:1018900002BF4FF4004004B080BDD1F8F000000159
:1018A00006D5B2F5007F02BF4FF4FA4004B080BD08
:1018B000086880034FF0000040F1B081B2F5407F2E
:1018C00040F0AC81C86910F4785F00F0CF81C8693E
:1018D00047F64001C0F30520C0F27D11B1FBF0F0E6
:1018E00004B080BD82F400530B4300F05B8182F4AE
:1018F0008042114340F0928140F60040C4F2024021
:10190000D0F8E41001F44021B1F5802F00F0668199
:10191000002900F09F8102680068920703D5B1F5A5
:10192000002F00F03F8200F400720020B1F5402F3C
:1019300054E200BF82F000530B4300F0558181F068
:101940000401114340F06A8140F60040C4F20240B5
:10195000D0F8E8100068800301F4407040F1808105
:10196000002840F07D8147F64000C0F27D1004B0B1
:1019700080BD00BF82F004030B4300F0518182F46C
:101980008052114340F04A8140F60040C4F20240C8
:10199000D0F8E01001F0E061B1F1807F00F06A81E1
:1019A000002900F08380036802689B0703D5B1F12A
:1019B000407F00F04B81920503D5B1F1806F00F0BC
:1019C000E481D0F8F00001F17B41F9E140F60040FC
:1019D000C4F20240D0F8E810026801F0300192042D
:1019E00040F14E81002940F04B8146F60040C0F2A4
:1019F000DC2004B080BD00BF40F60041C4F20241CB
:101A0000D1F8E00000F00702042A00F22F8148F22A
:101A10000000C0F2BB00DFE812F03801FB00290132
:101A200001010500D1F8E8200B6808689B0702F067
:101A3000404202D5002A00F0B581800540F18E8138
:101A4000B2F1804F00F0A18188E100BF40F6004173
:101A5000C4F20241D1F8E40000F04072B2F1807F9C
:101A600000F0BC80002A00F0F580086880074FF085
:101A7000000040F1D380B2F1007F40F0CF800868D1
:101A800090E100BF40F60041C4F20241D1F8DC0011
:101A9000C0F302220020052A00F2C080DFE812F025
:101AA0000600B800BE0002010A01500104B0BDE802
:101AB000804000F097BE00BF40F60040C4F20240F4
:101AC000D0F8E41001F03001102900F0DE80026847
:101AD000120102D5202900F0CD800068302900F4E1
:101AE00000524FF0000004BF46F60040C0F2DC2078
:101AF000002A08BF104691E040F60041C4F20241BE
:101B0000D1F8E800D1F8F02000F00800920705D5E0
:101B1000002802BF4FF4004004B080BDD1F8F0109F
:101B2000002818BF4FF4FA4001F00061002908BFF7
:101B3000084604B080BD00BF40F60040C4F2024039
:101B4000D0F8D81011F0070100F0A6800268120149
:101B500002D5012900F08E80036802689B0701D539
:101B6000032973D0920502D5042900F00E81D0F824
:101B7000F000053924E100BF40F60040C4F2024005
:101B8000D0F8E81001F00701022927D0012900F060
:101B90009B80002940F09E8004B0BDE8804000F0AA
:101BA000C1BD00BF40F60040C4F20240D0F8E410CE
:101BB00001F44031B1F5803F10D000294AD00268CD
:101BC0000068920703D5B1F5003F00F0EB8000F408
:101BD00000720020B1F5403F00E100BF01A8FFF70F
:101BE0006DFC039804B080BD40F60041C4F2024190
:101BF000D1F8E000C0F38212042A37D848F200007E
:101C0000C0F2BB00DFE802F04104320A8C0000BFE2
:101C100001A8FFF753FC019804B080BD04B080BD5B
:101C200040F60040C4F20240D0F8D81011F4E07140
:101C300010D00268120101D540291BD00368026848
:101C40009B0740F19D80C02940F09A80C2F3C100FB
:101C5000AAE000BF04B0BDE8804000F07BBD00BF3B
:101C6000B0F5007F06D0B0F5807F0ED0002004B024
:101C700080BD00BF01A8FFF721FC029804B080BD21
:101C80000268920132D5102930D101A8FFF73CFB40
:101C9000029804B080BD00BF04B0BDE8804000F0F1
:101CA0007DBD00BFD1F8F0004FF4004101EA803063
:101CB00004B080BDD1F8F0004FF4FA41000101EA10
:101CC000E07004B080BD00BF04B0BDE8804000F00B
:101CD000ADBD00BF026892035ED503295CD147F613
:101CE0004000C0F27D1004B080BD00BFD0F8F020ED
:101CF000920705D5202902BF4FF4004004B080BDF3
:101D0000D0F8F000302900F000624FF0000008BF6A
:101D10004FF4FA40002A08BF104604B080BD00BF4F
:101D2000D1F8E8200B6808689B0702F0404200D514
:101D3000C2B3800512D5B2F1804F26D00EE000BFAD
:101D4000D1F8E8200B6808689B0702F0404200D5F4
:101D500042B3800502D5B2F1804F16D00868B2F1C7
:101D6000004F00F400314FF0000004BF47F6400080
:101D7000C0F27D10002908BF084604B080BD00BF36
:101D8000920519D5B1F5807F16D140F60010C0F24A
:101D90003D0004B080BD00BF02680068920719D5FD
:101DA000042917D1C0F3C10049F20001C0F2D031BB
:101DB00021FA00F004B080BDD0F8F000A1F5A071C8
:101DC00010F00200B1FA81F14FEA511118BFC803B7
:101DD00004B080BD00F400720020052904BF40F665
:101DE0000010C0F23D00002A08BF104604B080BDBC
:101DF0002DE9F0470446006840F62848C101C4F2C6
:101E0000024807D5D8F8C010226B21F04041114399
:101E1000C8F8C010C00714D0606BC11E032909D3D5
:101E200040B1012814D104F1080002F037F9064648
:101E300040B9606BD8F8B01021F007010843C8F82A
:101E4000B00000262078800706D4354622E000BF87
:101E5000012620788007F8D5A06B6FF0020101EB16
:101E6000F001354603290AD34FEAF000354630B178
:101E7000012831D104F1080002F010F905462F467F
:101E80004DB9D8F8B000A16B20F038000843002508
:101E9000C8F8B00037462078400722D5E06B6FF0D5
:101EA000020101EBB011032909D34FEAB01030B1A0
:101EB000012837D104F1080002F0F0F805462E465B
:101EC00085B9D8F8B000E16B20F4E0700843002534
:101ED000C8F8B00005E000BF0125012720784007C1
:101EE000DCD43E466078C00621D5206C6FF002013C
:101EF00001EB3061032909D34FEA306030B101288A
:101F00003CD104F1080002F0C9F805462F467DB91E
:101F1000D8F8B800216C20F0E06008430025C8F82C
:101F2000B80004E0012501266078C006DDD43746FC
:101F30006078800627D5606C6FF0010101EB3041BD
:101F4000022909D34FEA304030B1012810D104F101
:101F5000080002F0A3F805462E465DB9D8F8BC008B
:101F6000616C20F4403008430025C8F8BC000AE04A
:101F7000012501266078400609D424E001250127C7
:101F800060788006D7D43E46607840061BD5A06CAA
:101F90006FF0010101EBB041022909D34FEAB040D3
:101FA00030B1012832D104F1080002F077F805467B
:101FB0002F464DB9D8F8BC00A16C20F4402008434E
:101FC0000025C8F8BC003746A078C00723D0E06CD5
:101FD000002818BFB0F1007F0CD12E46E5B9D8F823
:101FE000BC00E16C20F0407008430025C8F8BC003C
:101FF00011E000BFB0F1807F30D104F1080002F0A1
:102000004DF805462E463DB9E9E700BF01250127F9
:10201000A078C007DBD13E466079C00623D5206D8D
:10202000002818BFB0F1006F0CD12F46E5B9D8F8E1
:10203000BC00216D20F0406008430025C8F8BC00BA
:1020400011E000BFB0F1806F62D104F1080002F02E
:1020500025F805462F463DB9E9E700BF01250126D1
:102060006079C006DBD43746D4E9000140F61C4A4B
:10207000C4F2024A09050CD5DAF8001021F4004137
:10208000CAF80010D4F88010DAF800201143CAF81A
:10209000001080031BD5606D6FF0020101EB302151
:1020A000032909D34FEA302030B1012834D104F19B
:1020B000080001F0F3FF05462E464DB9D8F8B400EC
:1020C000616D20F4E06008430025C8F8B4003E4686
:1020D000A078400725D5A06D6FF0020101EB3031EB
:1020E000032909D34FEA303030B101282AD104F155
:1020F000080001F0D3FF05462F469DB9D8F8B4007B
:10210000A16D20F4E04008430025C8F8B40008E0C1
:1021100001250127A8E700BF01250126A078400777
:10212000D9D43746A07880062BD5606E05280FD805
:10213000022815D02946DDB1D4E90002920525D444
:1021400033E000BF01250127A0788006EDD418E018
:1021500001250121D4E90002920517D425E000BF32
:1021600004F1080001F09AFF0546002D2946E3D14D
:10217000D8F8C000616E20F0070008430025C8F8B9
:10218000C0003946D4E9000292050ED5A26E42F095
:102190000803082B0ED1A94645B9D8F8C030002550
:1021A00023F008031A43C8F8C0208946800106D4EA
:1021B000484621E001254FF001098001F8D54FF68E
:1021C0000847CFF6FF775AF8070040F001004AF8B9
:1021D0000700FEF77FFC06465AF80700C00707D144
:1021E000FEF778FC801B0228F6D90325032003E0C4
:1021F000002D284600F00E8121684A011BD5226E71
:102200006FF0010303EB3213022B0AD34FEA3213B0
:102210003BB1012B2ED1D8F8003043F40033C8F87D
:1022200000302F4645B9D8F8C030002523F03003E0
:102230001A43C8F8C020074608011FD5E06EC11E2A
:1022400002290BD3012800F0BB80002840F0C28097
:10225000D8F8000040F40030C8F800002E4675B9E8
:10226000D8F8B800E16E20F0070008430025C8F850
:10227000B80003E0012501270801DFD43E46E078DD
:10228000C0061FD5206F6FF0020101EBF00102299B
:102290000DD34FEAF000012800F0A080002840F0A4
:1022A000A780D8F8000040F40030C8F800002F469E
:1022B0004DB9D8F8B800216F20F038000843002548
:1022C000C8F8B8003746E07880061FD5606F6FF019
:1022D000020101EBB01102290DD34FEAB010012821
:1022E00000F08A80002840F09180D8F8000040F487
:1022F0000030C8F800002E464DB9D8F8B800616F1C
:1023000020F4E07008430025C8F8B8003E46207964
:10231000400721D5E06D58B1B0F5007F0CD0B0F585
:10232000807F49D1D8F8000040F40030C8F80000A0
:102330002F4695B907E000BF04F1080001F0AEFE9A
:1023400005462F464DB9D8F8C000E16D20F4407025
:1023500008430025C8F8C00037462079C0065CBF96
:102360003846BDE8F087E06F30280CD020280FD029
:1023700010281CBF0120BDE8F087D8F8000040F409
:102380000030C8F8000055B12846BDE8F08700BF0E
:1023900004F1080001F082FE0546002DF4D1D8F8C2
:1023A000BC00E16F20F0300008433D46C8F8BC0097
:1023B0002846BDE8F08700BF01250127CDE700BF13
:1023C00004F1080001F06AFE0546002D2E467FF458
:1023D00056AF45E70125012651E700BF04F108008B
:1023E00001F05CFE0546002D2F467FF46CAF60E7E0
:1023F0000125012767E700BF04F1080001F04EFE48
:102400000546002D2E467FF482AF76E70125012692
:102410007DE700BFD8F8C80010F4407016D0A16F57
:10242000884211D0D8F8C800D8F8C81020F44070FD
:1024300041F48031C8F8C810D8F8C81021F48031B0
:10244000C8F8C810C8F8C800C00721D1A06FDAF8D2
:1024500000104FF6CF7300F4407221F47C51C0F2AB
:10246000FF0303EA1013B2F5407F08BF1943CAF80F
:102470000010D8F8C8106FF31F3021F44071C8F86D
:10248000C810D8F8C81000250843C8F8C8008FE65F
:10249000FEF720FB064641F288370325D8F8C8002E
:1024A0008007D3D4FEF716FB801BB8424FF0030021
:1024B000F4D9A1E62DE9F04381B0002800F0CD80E9
:1024C00042F20008C4F202080446D8F800000D46A3
:1024D00000F00F0088420DD2D8F8000020F00F0065
:1024E0002843C8F80000D8F8000000F00F00A84208
:1024F00040F0B380206840F62047C106C4F202478E
:102500000CD561693A68702303EA1222914205D919
:102510003A6822F4E04242EA0121396001070CD511
:1025200021693A68702303EA1212914205D93A6888
:1025300022F4E06242EA0111396041070AD5E168FC
:102540003A6802F07002914204D93A6822F07002AF
:102550001143396081070AD5A1683A6802F00F0279
:10256000914204D93A6822F00F0211433960C00742
:1025700068D1206881070AD5A1683A6802F00F0285
:10258000914204D23A6822F00F0211433960D8F820
:10259000001001F00F01A9420CD9D8F8001021F069
:1025A0000F012943C8F80010D8F8001001F00F01FE
:1025B000A94252D141070AD5E1683A6802F0700297
:1025C000914204D23A6822F0700211433960010747
:1025D0000CD521693A68702303EA1212914205D2A0
:1025E0003A6822F4E06242EA01113960C0060CD573
:1025F00060693968702202EA1121884205D239687F
:1026000021F4E04141EA0020386000F00FF9396818
:1026100046F68C0201F00F01C0F60002525C40F257
:102620000801C2F20001096840F20C0320FA02F22C
:10263000C2F2000308461A6001B0BDE8F043FEF79D
:10264000BFBD00BF606801280CD002285ED00328FF
:1026500062D157F8201C890108D4012001B0BDE8DF
:10266000F08300BF57F8201C8905F6D557F8041CE5
:1026700021F00301084347F8040CFEF72BFA6168C8
:102680000646032941F288392BD0022937D0012987
:1026900010D100BF57F8040C00F0180008283FF4D0
:1026A00068AFFEF717FA801B48454FF00300F1D9D9
:1026B0000DE000BF57F8040C10F0180F3FF459AFAD
:1026C000FEF708FA801B48454FF00300F2D901B02D
:1026D000BDE8F083FEF7FEF9801B48454FF003008C
:1026E000F5D857F8040C00F018001828F2D140E78C
:1026F000FEF7F0F9801B48454FF00300E7D857F884
:10270000040C00F018001028F2D132E757F8201C12
:102710008903A2D5AAE700BF57F8201C89079CD5DA
:10272000A4E7000080B500F081F840F62041C4F233
:102730000241096846F68C0201F00F01C0F6000262
:10274000515C01F01F01C84040F20C01C2F20001CF
:10275000086080BD80B500F069F840F62041C4F201
:1027600002410A6846F68C0302F00F02C0F600032D
:102770009A5C02F01F02D04040F20C02C2F200024A
:102780001060096846F69C02C1F30211C0F600020F
:10279000515C01F01F01C84080BD000080B500F011
:1027A00045F840F62041C4F202410A6846F68C031F
:1027B00002F00F02C0F600039A5C02F01F02D04044
:1027C00040F20C02C2F200021060096846F69C0258
:1027D000C1F30221C0F60002515C01F01F01C840A4
:1027E00080BD000080B500F021F840F62041C4F221
:1027F00002410A6846F68C0302F00F02C0F600039D
:102800009A5C02F01F02D04040F20C02C2F20002B9
:102810001060096846F69C02C1F30231C0F600025E
:10282000515C01F01F01C84080BD000080B540F63A
:102830000041C4F20241C86900F01800082802BF34
:1028400040F60010C0F23D0080BDC86910F0180FBE
:1028500034D0C86900F01800102802BF47F64000C5
:10286000C0F27D1080BDC86900F01800182849F238
:102870000000C0F2D03066D1D1F828E08A6AC2F3F5
:10288000052C8A6A8B6BBCF1000F04BF002080BD51
:10289000C2F30012C3F3CC0303FB02F200EE102AD2
:1028A0000EF00302B8EE400A032A15D0012A17D110
:1028B0000A68920618D49FED251A1DE00868800664
:1028C00049F20000C0F2D03058BF80BD0968C1F3A2
:1028D000C101C84080BD00BF9FED1B1A0CE000BFC6
:1028E0009FED1B1A08E000BF0A68C2F3C102D04086
:1028F00001EE100AB8EE411A02EE10CA486BB8EEAB
:10290000422A6FF35F2081EE021A02EE100A9FED59
:10291000113AB8EE422A20EE030A486B30EE020A62
:10292000B7EE002AC0F3462030EE020A013021EE55
:10293000000A01EE100AB8EE411A80EE010ABCEE60
:10294000C00A10EE100A80BD20BCBE4B0024744C9F
:102950000024744A000000392DE9F04381B00028BA
:1029600000F0168140F6004740F6F0490446C4F2F4
:102970000247C4F20249F86959F8C81C227800F0ED
:102980001808D00601F0030629D5B8F1080F1BD0AE
:10299000B8F1180F08BF022E16D0E1693868002977
:1029A00000F0668140F480703860FEF793F80546C9
:1029B000386880050CD4FEF78DF8401B02284FF0D4
:1029C0000300F5D95EE200BFE069002800F0E08076
:1029D000B869216A20F47C1040EA0140B86120788F
:1029E000C00717D0B8F1100F10D0B8F1180F08BFFA
:1029F000032E0BD06068B0F5A02F5FDA002800F03E
:102A0000A181B0F5803F00F0C181C3E1606800287A
:102A100000F0BE802078800775D5B8F1000F21D076
:102A2000E068B8F1180F08BF012E55D039680028AA
:102A300000F06481206921F018010843386038688B
:102A400040F001003860FEF745F805463868800719
:102A500052D4FEF73FF8401B02284FF00300F5D98F
:102A600010E200BFE068002800F092803968206919
:102A700001F01801814231D0396821F01801084372
:102A80003860FFF7D3FE396A46F68C0201F00F0179
:102A9000C0F60002515C40F20C0201F01F0120FA66
:102AA00001F140F20800C2F200000068C2F2000228
:102AB0001160FEF785FB00286AD10FE000F05E810F
:102AC000B0F5A81F40F06681386840F48020386077
:102AD000386840F4801058E1002859D0FDF7FAFF1B
:102AE000054600BF3868800706D4FDF7F3FF401B9A
:102AF0000228F7D965E000BF3869616920F4FE005B
:102B000040EA014038612078000745D4207840072A
:102B10005CD42078800600F17D80A56AA5B3B8F169
:102B2000180F40F0C98059F8C81C59F8BC0C012D89
:102B30002ED0E26A01F00303934229D1C1F30521AB
:102B4000226B914224D1626B01466FF35F21013AFF
:102B500091421DD1A16BC0F3462201398A4217D19F
:102B6000E16BC0F3064201398A4211D1216CC0F3F6
:102B70000660013988420BD159F8B80CE16CC0F3FA
:102B8000CC00884240F0F281002001B0BDE8F08323
:102B9000012001B0BDE8F083A169D9F80000002947
:102BA00050D040F08060C9F80000FDF793FF054663
:102BB000D9F800000001A9D4FDF78CFF401B0228C2
:102BC000F6D9032001B0BDE8F08300BF4FF62446DC
:102BD000CFF6FF76B859C00712D1B85940F00100BE
:102BE000B851FDF777FF0546B859C00708D1FDF782
:102BF00071FF401B02284FF00300F5D942E100BFEE
:102C0000A068042846DC002800F0E080012800F0DD
:102C10000F8113E1616A3868002900F0818040F477
:102C200080503860FDF756FF054600BF38688004C5
:102C30003FF573AFFDF74EFF401B02284FF0030036
:102C4000F4D91FE120F08060C9F80000FDF742FFD1
:102C5000054600BFD9F8000000017FF557AFFDF72A
:102C600039FF401B02284FF00300F3D90AE100BFEF
:102C700020F480703860FDF72DFF05463868800528
:102C80007FF5ADAEFDF726FF401B02284FF0030095
:102C9000F4D9F7E0052800F0BF80852840F0CE8009
:102CA000D9F8000040F00400C9F80000D9F800008D
:102CB00040F08000BAE000BF386820F080703860D3
:102CC000FDF708FF022D05460CD100BF38688001D2
:102CD00040F1DC80FDF7FEFE401B02284FF00300B0
:102CE000F4D9CFE03868800140F13281FDF7F2FE7F
:102CF000401B02284FF00300F4D9C3E021F001008B
:102D00003860FDF7E7FE0546386880077FF5FBAEC3
:102D1000FDF7E0FE401B02284FF00300F4D9B1E0BC
:102D200020F480503860FDF7D5FE054638688004F1
:102D30007FF5F3AEFDF7CEFE401B02284FF00300F7
:102D4000F4D99FE0386820F480303860386820F487
:102D500080103860386820F480203860FDF7BAFEB3
:102D6000054600BF386880037FF554AEFDF7B2FE1C
:102D7000401B64284FF00300F4D983E0386840F426
:102D800080203860386820F480103860386840F45B
:102D900080300AE0386820F480303860386820F4E9
:102DA00080203860386820F480103860FDF792FE8B
:102DB000054600BF386880033FF52CAEFDF78AFE5C
:102DC000401B64284FF00300F4D95BE0D9F8000001
:102DD00020F00100C9F80000D9F8000020F08000C0
:102DE000C9F80000D9F8000020F00400C9F800007C
:102DF000FDF770FE054641F2883600BFD9F80000A5
:102E000080077FF586AEFDF765FE401BB0424FF0B0
:102E10000300F3D936E000BFD9F8000040F0040009
:102E2000C9F80000D9F8000020F08000C9F80000BF
:102E3000D9F8000040F0010010E000BFD9F8000010
:102E400020F00100C9F80000D9F8000020F00400CB
:102E5000C9F80000D9F8000020F08000C9F800008F
:102E6000FDF738FE054641F2883600BFD9F800006C
:102E700080073FF54EAEFDF72DFE401BB0424FF0F0
:102E80000300F3D901B0BDE8F08300BF59F8C80CC6
:102E900043F6037104F12C0388430ECB084340EA48
:102EA0000220A16B49F8C80C4FF47E4202EB41218D
:102EB000E26B581E4FF4FE0389B203EB02426FF33C
:102EC0005F20084402F4FE01226C4FF0FE4303EB46
:102ED0000262084402F0FE41084449F8BC0C59F86B
:102EE000C80C20F0100049F8C80CE06CC00049F88C
:102EF000B80C59F8C80C40F0100049F8C80C59F843
:102F0000C80C616C20F00C00084349F8C80C59F853
:102F1000C80CA16C20F02000084349F8C80C59F8EF
:102F2000C80C40F4803049F8C80C386840F0807014
:102F30003860FDF7CFFD0446386880013FF524AEC8
:102F4000FDF7C8FD001B02284FF00300F4D999E7F4
:102F500059F8C80C4FF6FC71CFF6F871084049F8E3
:102F6000C80C002001B0BDE8F08300BF59F8C80CC0
:102F700020F0100049F8C80CFDF7ACFD0546FDF740
:102F8000A9FDA842FBD0E06CC00049F8B80C59F884
:102F9000C80C40F0100049F8C80C002001B0BDE892
:102FA000F0830000042888BF7047DFE800F00315B5
:102FB000273839004EF21000CEF20000016821F0EF
:102FC0000401016040F6E440C4F20240016821F0CF
:102FD0000C010160704700BF4EF21000CEF20000FD
:102FE0000168012221F00401016040F6E440C4F2CE
:102FF0000240016862F38301016070474EF21000E5
:10300000CEF200000168022221F00401016040F6C6
:10301000E440C4F20240016862F38301016070473A
:103020004EF21000CEF20000016841F00401016090
:1030300070470000411E0020B0EB116F1CBF012043
:1030400070474EF21002CEF200025160906011689B
:1030500041F00301116070474EF21000CEF2000003
:103060000068400744BF0420704740F6E440C4F2C3
:103070000240006800F00C01081FB0FA80F040091F
:10308000082908BF0220704790F88410012904BF66
:10309000022070472421C0F8881002681168136864
:1030A00023F00103136021F00053002141661360F7
:1030B0002022C0F8882080F884100846704700005D
:1030C0007047000070470000B0B590F88420012AD6
:1030D00004BF0220B0BD2422C0F888200268D0F8C6
:1030E00064E0D2F800C01368BEF1000F23F00103C2
:1030F0001360936823F0606341EA0301916019D083
:103100009368916846F6BC0E490FC0F6000E46F66D
:10311000C4051EF80140C0F60005C3F34263695CB4
:10312000E400B4FBF1F11EF80340EB5CE500B5FBF5
:10313000F3F301E001210123A0F86A102021A0F897
:103140006830C2F800C0C0F88810002180F88410F0
:103150000846B0BDB0B590F88420012A04BF022013
:10316000B0BD2422C0F888200268D0F864E0D2F80C
:1031700000C01368BEF1000F23F0010313609368D1
:1031800023F0604341EA0301916019D0936891688C
:1031900046F6BC0E490FC0F6000E46F6C4051EF8F2
:1031A0000140C0F60005C3F34263695CE400B4FB70
:1031B000F1F11EF80340EB5CE500B5FBF3F301E031
:1031C00001210123A0F86A102021A0F86830C2F87C
:1031D00000C0C0F88810002180F884100846B0BDF7
:1031E00070470000704700007047000070B502682B
:1031F00040F62F03D1690446106896680B40202BD7
:103200000ED100F0200306F080555B1919D0616FD4
:10321000002900F07F802046BDE87040084700BFCD
:1032200040F60F0319420CD00123C1F2000306EA55
:10323000030C40F22013C0F20043034013EB0C03D5
:103240006AD1E36E012B05D111F0100318BF10F005
:1032500010034DD1CB020BD516F4800308D04FF4E8
:10326000801120461162BDE87040FFF7BBBF00BF70
:103270000B0606D500F0800306F400069B1940F00B
:103280006B814B0640F1F08010F0400300F0EC80C1
:1032900052E8000F216820F0400041E80002002AB7
:1032A00000F0EE80206850E8000F216820F0400018
:1032B00041E80002002A00F0E380206850E8000F97
:1032C000216820F0400041E80002002A00F0D88088
:1032D000206850E8000F216820F0400041E800021B
:1032E000002A00F0CD80206850E8000FD2E700BF30
:1032F00010201062906840061AD4B4F85C00B4F84C
:103300005E10B4F85E30002B1CBF401A5FEA00412B
:1033100040F0D68170BD00BFCB0718BF10F480739A
:1033200040F0B8808B0706F0010E00F1BF80C8E0C6
:10333000D4F880C0DCF80000836CB4F85C0099B26B
:10334000002900F0A181814280F09E81A4F85E30C6
:10335000DCF8500081287AD052E8000F216820F470
:10336000807041E80002D2B3206850E8000F216865
:1033700020F4807041E800028AB3206850E8000F12
:10338000216820F4807041E8000242B3206850E8D0
:10339000000F216820F4807041E80002FAB1206833
:1033A00050E8000FDAE700BF206850E8020F2168FC
:1033B00020F0010041E80202DAB1206850E8020F73
:1033C000216820F0010041E8020292B1206850E833
:1033D000020F216820F0010041E802024AB1206892
:1033E00050E8020F216820F0010041E80202002AA3
:1033F000DAD12020C4F88C000020E066206850E874
:10340000000F216820F0100041E80002DAB12068C6
:1034100050E8000F216820F0100041E8000292B14E
:10342000206850E8000F216820F0100041E80002F9
:103430004AB1206850E8000F216820F0100041E8F0
:103440000002002ADAD1D4F88000FDF7F1F9022059
:103450002067B4F85C00B4F85E10401A81B22046D0
:10346000BDE87040FFF72CBE0A0240F1178110F052
:10347000804200F013812046BDE87040FFF7B0BEE7
:1034800020200021C4F888002046A167BDE87040D4
:1034900000F062BB01231362D4F8903043F00103C3
:1034A000C4F890308B0706F0010E0AD5BEF1000F6C
:1034B00007D002231362D4F8903043F00403C4F819
:1034C00090304B070AD5BEF1000F07D004231362DA
:1034D000D4F8903043F00203C4F890300B070CD5B9
:1034E00000F0200353EA0C0307D008231362D4F83A
:1034F000903043F00803C4F890300B050BD510F062
:10350000806308D04FF400631362D4F8903043F026
:103510002003C4F89030D4F89030002B3FF4FAAE7A
:1035200011F020011EBF00F0200006F0805110EBCA
:10353000010040F04781D4F89000916800F0280025
:1035400001F0400140180DD12046FFF74DFE00204C
:10355000C4F8900070BD00BFA16F00297FF45BAE7E
:10356000D8E600BF52E8000F216820F4907041E8CF
:103570000002FAB1206850E8000F216820F4907032
:1035800041E80002B2B1206850E8000F216820F441
:10359000907041E800026AB1206850E8000F21688D
:1035A00020F4907041E8000222B1206850E8000F3A
:1035B000DAE700BF4FF6FE70CEF6FF70216851E8E3
:1035C000021F2268014042E80213C3B1216851E89A
:1035D000021F2268014042E8021383B1216851E8CA
:1035E000021F2268014042E8021343B1216851E8FA
:1035F000021F2268014042E80213002BDED1E06E78
:10360000012824D1206850E8000F216820F0100024
:1036100041E80002DAB1206850E8000F216820F08C
:10362000100041E8000292B1206850E8000F2168C4
:1036300020F0100041E800024AB1206850E8000F75
:10364000216820F0100041E80002002ADAD1202091
:10365000C4F88C000020E066216860678868400636
:1036600028D5D4F8800028B344F25D51C0F600019B
:10367000C166FDF735F900283FF44CAED4F8800060
:10368000C16EBDE87040084788427FF443AEDCF865
:10369000500081287FF43EAE02228CE0C9017FF504
:1036A00039AEB0F1FF3FC8BF70BD2046BDE87040E5
:1036B000FFF708BD2046BDE87040FFF795BD00BF8D
:1036C00052E8001F226821F4907142E80013FBB118
:1036D000216851E8001F226821F4907142E800132C
:1036E000B3B1216851E8001F226821F4907142E8CB
:1036F00000136BB1216851E8001F226821F490711A
:1037000042E8001323B1216851E8001FDAE700BF47
:103710004FF6FE71CEF6FF71226852E8022F236841
:103720000A4043E80226C6B1226852E8022F236805
:103730000A4043E8022686B1226852E8022F236835
:103740000A4043E8022646B1226852E8022F236865
:103750000A4043E80226002EDED12021C4F88C1056
:103760000021E166616700BF216851E8001F2268FF
:1037700021F0100142E80013DBB1216851E8001F7D
:10378000226821F0100142E8001393B1216851E84A
:10379000001F226821F0100142E800134BB121689C
:1037A00051E8001F226821F0100142E80013002BAD
:1037B000DAD1022281B220462267BDE87040FFF7CD
:1037C0007FBC00BF616F00293FF4B5AE204688473B
:1037D0002268B0E610B5E0B10446D0F8880028B9F8
:1037E000002084F88400204600F028F82420C4F843
:1037F00088002068A16A0268002922F001020260A4
:103800001CBF204600F07EFD204601F08BFB012806
:1038100002D1012010BD00BF2168486820F490400B
:103820004860886820F02A008860086840F001023B
:1038300020460A60BDE8104000F0D8BD10B5A8B021
:103840000446684608308021FCF75CFD206843F69A
:103850000001C4F20101884202D028B010BD00BFAF
:1038600001200024009068460194FEF7C1FA002868
:1038700018BFFCF7D9FF40F68C40C4F202408169C2
:1038800041F480418161816901F480412391239950
:10389000016841F001010160006823A900F0010006
:1038A000239023984FF4C06023900220CDE9240494
:1038B000072027900020C4F202202694FDF73CF850
:1038C0003A2000210022FDF7E3FC3A20FDF7D0FC6E
:1038D00028B010BD80B5D0F88C30202B1CBF022042
:1038E00080BD00294FF0010318BF002A02D11846FD
:1038F00080BD00BF0023C366D0F800C0DCF80830EC
:103900005B0605D5DCF8083023F04003CCF808301E
:1039100042F20043C4F200439C4503D0DCF804307B
:103920001B0205D401F0D6FB0023184680BD00BF62
:103930005CE800CFD0F800E04CF080634EE8003C3B
:10394000BCF1000FEED0036853E800CFD0F800E0E0
:103950004CF080634EE8003CBCF1000FE2D00368FD
:1039600053E800CFD0F800E04CF080634EE8003C14
:10397000BCF1000FD6D0036853E800CFD0F800E0C8
:103980004CF080634EE8003CBCF1000FCAD00368E5
:1039900053E800CFCEE7000040F21001C2F2000170
:1039A00008780023086440F2BC00C2F20000012243
:1039B0000B70FFF78FBF00002DE9F0410446D0F8EF
:1039C000880020281CBF0220BDE8F0810F46002996
:1039D0004FF001001CBF1646002A01D1BDE8F0815E
:1039E00020681D468168090603D5816821F08001A1
:1039F00081604FF000082120C4F89080C4F888004E
:103A0000FDF768F8A4F85460A4F85660A16806466B
:103A1000B1F5805F05D12069002814BF3846B8464B
:103A20000746B4F85600D8B1681C1BD0002D71D1E0
:103A300021680AE017F8010B8862B4F856000138D3
:103A4000A4F85600B4F8560078B3C869000659D5F2
:103A5000002FEFD138F8020B00276FF35F20EBE760
:103A6000216822E0216802E0C869000609D4C8691B
:103A7000000606D4C86900065CBFC8695FEA00603A
:103A8000F2D51FB117F8010B05E000BF38F8020BA3
:103A900000276FF35F208862B4F856000138A4F85D
:103AA0005600B4F856000028E1D1C869400623D476
:103AB00045B3681C10D100BFC869400616D4C86958
:103AC000400613D4C869400610D4C86940064FF0B8
:103AD0000000F1D511E000BFFCF7FCFF801BA842FD
:103AE00012D820680168C0694006F5D50020202161
:103AF000C4F88810BDE8F08100202021C4F88810A7
:103B0000BDE8F081FCF7E6FF03202021C4F888100F
:103B1000BDE8F081216800BFC869000608D4FCF741
:103B2000D9FF801BA842EFD821680868F4E700BFDE
:103B300017B117F8010B04E038F8020B00276FF3F8
:103B40005F208862B4F856000138A4F85600B4F833
:103B500056000028E0D1A8E770470000FEE700000B
:103B600070B50446006815468369DA0602D4002160
:103B7000002266E00E461021C161816989065CD48D
:103B8000711C50D036BBFCF7A5FF2068426894F842
:103B9000421083691B040BD512F4804208D12029FE
:103BA00006D0416841F480414160FCF793FF05462F
:103BB00020688169890605D4FCF78CFF401B1A2810
:103BC000F6D328E081698906DDD536E02068816971
:103BD000890632D4FCF77EFF401BB042F6D920683C
:103BE000426894F8421083691B040BD512F480429A
:103BF00008D1202906D0416841F480414160FCF79A
:103C000069FF0546206880698006DFD4FCF762FF03
:103C1000401B1A28F6D3206801228169242110E074
:103C20008169890609D48169890606D48169890672
:103C30005CBF81695FEA8161F2D52021C161012207
:103C400004218369DE0505D54FF4807241F001013E
:103C5000C26101225E0507D49B050CD4002A04BF73
:103C6000002070BD0CE000BF41F008014FF48062FD
:103C70009B05C26104D541F002014FF40072C2619C
:103C80008269920744BF002282628269D20703D10F
:103C9000826942F00102826142684EF60003CFF66B
:103CA00000631A404260606C08436064202084F81E
:103CB0004100002084F8420084F84000012070BDDB
:103CC0002DE9F0410446006880690840401AB0FAC6
:103CD00080F04009904271D1DDF8188015460E46FB
:103CE0001F46581C30D0002F42D100BF2046002173
:103CF0004246FFF735FF00281CBF0120BDE8F081D8
:103D0000FCF7E8FE206881693140891BB1FA81F136
:103D10004909A94242D080693040801BB0FA80F046
:103D20004009A8421CBF0020BDE8F081DEE700BFCB
:103D3000206880693040801BB0FA80F04009A842BA
:103D40001CBF0020BDE8F08120464FF0FF31424605
:103D5000FFF706FF0028EBD00120BDE8F08100BF8F
:103D600080693040801BB0FA80F04009A84225D11C
:103D7000204639464246FFF7F3FE0028ECD1FCF717
:103D8000A9FEA0EB08012068B942E9D98169314058
:103D9000891BB1FA81F14909A942E1D1606C40F077
:103DA00020006064202084F84100002084F8420054
:103DB00084F840000120BDE8F08100BF0020BDE88C
:103DC000F081000070B5044600688069800637D431
:103DD00015460E4619B92AE08069800630D420467F
:103DE00031462A46FFF7BCFE40BBFCF773FE411B81
:103DF0002068B142F0D981698906EDD4606C40F049
:103E000020006064202084F84100002084F84200F3
:103E100084F84000012070BDFCF75CFE20688169D9
:103E20008906EBD58069800644BF002070BD20461E
:103E300000212A46FFF794FE0028EDD0012070BD36
:103E4000002070BD70B504460068806980074DD4BD
:103E500015460E46481C1DD04EBB00BF2046002113
:103E60002A46FFF77DFE00281CBF012070BDFCF72D
:103E700031FE20688169890729D58069800744BFA0
:103E8000002070BDEAE700BF20688069800744BF5A
:103E9000002070BD20464FF0FF312A46FFF760FE3C
:103EA0000028F1D0012070BD806980071ED4204613
:103EB00031462A46FFF754FE0028F3D1FCF70AFEEC
:103EC000411B2068B142EFD981698907ECD4606C4D
:103ED00040F020006064202084F84100002084F835
:103EE000420084F84000012070BD00BF002070BD7A
:103EF0002DE9F04387B0002740F68C400697C4F2C6
:103F000002400168002441F0010101600168C4F22F
:103F1000022401F00101019101990168002241F0A0
:103F2000020101600068022100F002000190019886
:103F300020460226FCF7C8FD04F5806528464FF4AC
:103F4000807100224FF48078FCF7BEFD029602AE2D
:103F50004FF0010920463146CDE903970597FCF75C
:103F6000EBFC28463146CDE90289CDE90477FCF720
:103F7000E3FC07B0BDE8F08380B540F2680045F28D
:103F8000004244F2E533C2F200000021C4F2000214
:103F90004FF0010CC1F2C003C0E90023C0E9021CCC
:103FA000C0E90411C0E906110162FCF7E3FD002835
:103FB00018BFFCF739FC40F26800C2F20000002193
:103FC000FCF78EFD002818BFFCF72EFC40F26800BD
:103FD000C2F200000021FCF7A9FD002808BF80BD47
:103FE000BDE88040FCF720BC80B50020FDF79AF8C2
:103FF000002818BFFCF718FCFDF7A4F8002808BF3C
:1040000080BDBDE88040FCF70FBC000080B540F2E9
:10401000BC0043F600034FF4E131C2F2000000227D
:10402000C4F201034FF00C0CC0E90031C0E90222D8
:10403000C0E9042CC0E90622C0E908228262FFF729
:10404000C9FB002818BFFCF7EFFB40F2BC00C2F22E
:1040500000000021FFF77EF8002818BFFCF7E4FB02
:1040600040F2BC00C2F200000021FFF72DF800284A
:1040700018BFFCF7D9FB40F2BC00C2F20000FFF70A
:1040800003F8002808BF80BDBDE88040FCF7CCBB2A
:10409000FEE70000FEE700007047000070B540F644
:1040A0002C46C4F2024656F82C1C044621F08060CF
:1040B00046F82C0CFCF70EFD054600BF56F82C0CFC
:1040C000000107D5FCF706FD401B022884BF032032
:1040D00070BDF3E7306843F60371884394E80E003F
:1040E000084340EA0220E16830604FF47E4202EB70
:1040F00041212269581E4FF4FE0389B203EB0242AC
:104100006FF35F20084402F4FE0162694FF0FE4342
:1041100003EB0262084402F0FE410844306130685B
:10412000A16920F00C00084330603068E16920F09C
:10413000200008433060606A3168084330603068AE
:104140004FF6F87120F0100030607069226A8843E1
:1041500040EAC2007061306840F01000306056F8EC
:104160002C0C40F0806046F82C0CFCF7B3FC0446A5
:1041700056F82C0C000144BF002070BDFCF7AAFCCF
:10418000001B032824BF032070BDF1E77047000027
:10419000FCF7E2BF10B59CB008A840F61404043048
:1041A0002421C4F20244FCF7ADF80020CDE906005A
:1041B000CDE90400CDE9020054F8040C40F03000D1
:1041C00044F8040C54F8040C00F0300001900198FD
:1041D0002068000709D4206800075CBF20685FEAF8
:1041E000007002D420680007F2D5102008904FF428
:1041F00080700F90202001211090022014917D21C9
:10420000CDE91200CDE91510CDE91700082019906D
:10421000002408A8CDE91A44FEF79EFB10B172B63F
:10422000FEE700BF1F2002900320CDE9030402A88F
:104230000521CDE905440794FEF73CF910B172B6AB
:10424000FEE700BF42F20000C4F202000168022251
:1042500062F3051101601CB010BD00004EF6885CD1
:10426000CEF2000CDCF80000012240F47000CCF823
:10427000000040F60040C4F2024002600022C26129
:10428000026203684EF6E321CFF6E2211940016095
:1042900040F28021C0F201118262C26241638263F6
:1042A000C1630264016821F48021016002654FF05E
:1042B000006142F21C00C4F202004CF8801C50F86D
:1042C000041C4A0F062A05D801F06041B1F1404FA5
:1042D00018BF70470168C9070BD042F63B21C0F6F2
:1042E000190140F8101C46F67F61C4F65D4140F8A4
:1042F000101C016841F002010160016841F00101F8
:104300000160704780B5816A0A070DD4CA0716D1CB
:104310008A071FD44A0728D4CA0631D48A063AD459
:104320004A0658D542E000BF0268D0F838C053684A
:1043300023F4004343EA0C035360CA07E8D0026841
:10434000D0F82CC0536823F4003343EA0C035360C5
:104350008A07DFD50268D0F830C0536823F4803371
:1043600043EA0C0353604A07D6D50268D0F834C03C
:10437000536823F4802343EA0C035360CA06CDD567
:104380000268D0F83CC0936823F4805343EA0C03DE
:1043900093608A06C4D50268D0F840C0936823F4BD
:1043A000005343EA0C0393604A0614D50268D0F820
:1043B00044C05368BCF5801F23F4801343EA0C0308
:1043C000536008D1D2F804C0D0F848E02CF4C00300
:1043D00043EA0E035360090658BF80BD0168C06CF4
:1043E0004A6822F400221043486080BDB0B582B014
:1043F00004460020C4F89000FCF76CFB21680546D9
:104400000A68120737D56FF07E4C20464FF4001132
:1044100000222B46CDF800C000F08EFF50B300BF45
:10442000206850E8000F216820F0800041E8000279
:10443000DAB1206850E8000F216820F0800041E8E0
:10444000000292B1206850E8000F216820F080003F
:1044500041E800024AB1206850E8000F216820F0CE
:10446000800041E80002002ADAD12020C4F8880048
:1044700060E000BF21680868400761D56FF07E4C9E
:1044800020464FF4800100222B46CDF800C000F0FA
:1044900053FF002854D000BF206850E8000F216867
:1044A00020F4907041E80002E2B1206850E8000F6B
:1044B000216820F4907041E800029AB1206850E829
:1044C000000F216820F4907041E8000252B120688A
:1044D00050E8000F216820F4907041E80002002AA3
:1044E000DAD100BF206850E8020F216820F00100F7
:1044F00041E80202DAB1206850E8020F216820F09A
:10450000010041E8020292B1206850E8020F2168E0
:1045100020F0010041E802024AB1206850E8020F91
:10452000216820F0010041E80202002ADAD12020AF
:10453000C4F88C000320002184F8841002B0B0BDC0
:104540002020C4F88800C4F88C000020E0662067B2
:10455000002184F8841002B0B0BD0000C06D0021BD
:10456000A0F85E10FEF740BEB0F860200168D0F8F9
:104570008C30222B40F0CE80D1F824C0836D02EA2B
:104580000C0223F8022B8365B0F85E20013AA0F8F4
:104590005E20B0F85E20002A18BF704751E8001F67
:1045A000026821F4907142E80013EBB1016851E810
:1045B000001F026821F4907142E80013A3B1016862
:1045C00051E8001F026821F4907142E800135BB1CA
:1045D000016851E8001F026821F4907142E800135D
:1045E00013B10168DAE700BF016851E8021F0268F1
:1045F00021F0010142E80213DBB1016851E8021F1A
:10460000026821F0010142E8021393B1016851E808
:10461000021F026821F0010142E802134BB1016858
:1046200051E8021F026821F0010142E80213002B49
:10463000DAD12021C0F88C100021416701670168A0
:1046400042F20042C4F20042914202D04A68120291
:1046500036D4C16E012918BFFFF79EB90021C1668B
:10466000016851E8001F026821F0100142E80013C0
:10467000DBB1016851E8001F026821F0100142E837
:10468000001393B1016851E8001F026821F0100186
:1046900042E800134BB1016851E8001F026821F0A5
:1046A000100142E80013002BDAD10168CA69D20672
:1046B00044BF10220A62B0F85C10FEF701BD00BFD3
:1046C00051E8001F026821F0806142E80013002BCE
:1046D000BFD0016851E8001F026821F0806142E804
:1046E0000013002BB5D0016851E8001F026821F0CB
:1046F000806142E80013002BABD0016851E8001F35
:10470000026821F0806142E80013002BA1D001680B
:10471000D6E700BF886940F0080088617047000054
:104720002DE9F04F81B002680446B0F86050D669B8
:1047300010689168D4F88C30222B40F04381B4F893
:104740006820002A00F0E48000F4807801F001077E
:104750004FF000094FF0020B4FF0010A04E000BFD8
:10476000B4F85E0000285CD0B00640F1D18020682B
:10477000A16D426A2A4021F8022BA165B4F85E10AF
:104780000139A4F85E10C6697107E9D0F20718BFB5
:10479000B8F1000F02D1B2070AD412E0C0F820A08D
:1047A000D4F8902042F00102C4F89020B20708D556
:1047B0003FB1C0F820B0D4F8902042F00402C4F811
:1047C0009020002908D53FB104210162D4F890005F
:1047D00040F00200C4F89000D4F890000028BFD048
:1047E0002046FEF701FDC4F89090B9E7206850E834
:1047F000000F216820F4807041E80002DAB12068DF
:1048000050E8000F216820F4807041E8000292B166
:10481000206850E8000F216820F4807041E8000211
:104820004AB1206850E8000F216820F4807041E808
:104830000002002ADAD14FF6FE70CEF6FF7000BFFC
:10484000216851E8021F2268014042E80213C3B107
:10485000216851E8021F2268014042E8021383B137
:10486000216851E8021F2268014042E8021343B167
:10487000216851E8021F2268014042E80213002B20
:10488000DED12020C4F88C000020606720672068FB
:1048900042F20041C4F20041884203D0416809025B
:1048A00000F19880E06E012840F0C2800020E066B0
:1048B000206850E8000F216820F0100041E8000255
:1048C000DAB1206850E8000F216820F0100041E8BC
:1048D000000292B1206850E8000F216820F010001B
:1048E00041E800024AB1206850E8000F216820F03A
:1048F000100041E80002002ADAD12068C169C90627
:1049000044BF10210162B4F85C102046FEF7D8FBCA
:10491000B4F85E00002852D0B4F8681088424ED235
:10492000206850E8020F216820F0805041E8020220
:10493000DAB1206850E8020F216820F0805041E889
:10494000020292B1206850E8020F216820F08050E6
:1049500041E802024AB1206850E8020F216820F0C5
:10496000805041E80202002ADAD144F26950C0F6D0
:1049700000006067206850E8000F216840F02000C8
:1049800041E80002DAB1206850E8000F216840F0E9
:10499000200041E8000292B1206850E8000F216831
:1049A00040F0200041E800024AB1206850E8000FC2
:1049B000216840F0200041E80002002ADAD101B06D
:1049C000BDE8F08F906940F00800906101B0BDE84B
:1049D000F08F00BF50E8000F216820F0806041E8B0
:1049E0000002002A3FF45EAF206850E8000F216803
:1049F00020F0806041E80002002A3FF453AF2068B5
:104A000050E8000F216820F0806041E80002002A91
:104A10003FF448AF206850E8000F216820F0806024
:104A200041E80002002A3FF43DAF2068D2E700BF12
:104A30002046FEF7B1FFB4F85E0000287FF46CAFAB
:104A4000BDE70000B0F860100268D0F88C30222B6F
:104A500040F0CE80526A836D11401970816D013132
:104A60008165B0F85E100139A0F85E10B0F85E10F4
:104A7000002918BF704700BF016851E8001F026895
:104A800021F4907142E80013E3B1016851E8001F7E
:104A9000026821F4907142E800139BB1016851E86B
:104AA000001F026821F4907142E8001353B10168BD
:104AB00051E8001F026821F4907142E80013002BB6
:104AC000DAD100BF016851E8021F026821F001013C
:104AD00042E80213DBB1016851E8021F026821F0CD
:104AE000010142E8021393B1016851E8021F026814
:104AF00021F0010142E802134BB1016851E8021FA5
:104B0000026821F0010142E80213002BDAD12021D2
:104B1000C0F88C10002141670167016842F2004231
:104B2000C4F20042914202D04A68120236D4C16EE9
:104B3000012918BFFEF730BF0021C166016851E8A6
:104B4000001F026821F0100142E80013DBB1016888
:104B500051E8001F026821F0100142E8001393B1F0
:104B6000016851E8001F026821F0100142E80013BB
:104B70004BB1016851E8001F026821F0100142E8C2
:104B80000013002BDAD10168CA69D20644BF102293
:104B90000A62B0F85C10FEF793BA00BF51E8001F3C
:104BA000026821F0806142E80013002BBFD0016849
:104BB00051E8001F026821F0806142E80013002BD9
:104BC000B5D0016851E8001F026821F0806142E819
:104BD0000013002BABD0016851E8001F026821F0E0
:104BE000806142E80013002BA1D00168D6E700BF26
:104BF000906940F008009061704700002DE9F04F87
:104C000081B002680446B0F86050D66910689168B7
:104C1000D4F88C30222B40F04581B4F86820002A6B
:104C200000F0E68000F4807A01F001074FF0000800
:104C30004FF0020B4FF0010904E000BFB4F85E0032
:104C400000285ED0B00640F1D3802068A16D406A94
:104C500028400870A16D20680131A165B4F85E108C
:104C60000139A4F85E10C6697107E7D0F20718BFD2
:104C7000BAF1000F02D1B2070AD412E0C0F82090B6
:104C8000D4F8902042F00102C4F89020B20708D571
:104C90003FB1C0F820B0D4F8902042F00402C4F82C
:104CA0009020002908D53FB104210162D4F890007A
:104CB00040F00200C4F89000D4F890000028BDD065
:104CC0002046FEF791FAC4F89080B7E7206850E8D4
:104CD000000F216820F4807041E80002DAB12068FA
:104CE00050E8000F216820F4807041E8000292B182
:104CF000206850E8000F216820F4807041E800022D
:104D00004AB1206850E8000F216820F4807041E823
:104D10000002002ADAD14FF6FE70CEF6FF7000BF17
:104D2000216851E8021F2268014042E80213C3B122
:104D3000216851E8021F2268014042E8021383B152
:104D4000216851E8021F2268014042E8021343B182
:104D5000216851E8021F2268014042E80213002B3B
:104D6000DED12020C4F88C00002060672067206816
:104D700042F20041C4F20041884203D04168090276
:104D800000F19880E06E012840F0C2800020E066CB
:104D9000206850E8000F216820F0100041E8000270
:104DA000DAB1206850E8000F216820F0100041E8D7
:104DB000000292B1206850E8000F216820F0100036
:104DC00041E800024AB1206850E8000F216820F055
:104DD000100041E80002002ADAD12068C169C90642
:104DE00044BF10210162B4F85C102046FEF768F958
:104DF000B4F85E00002852D0B4F8681088424ED251
:104E0000206850E8020F216820F0805041E802023B
:104E1000DAB1206850E8020F216820F0805041E8A4
:104E2000020292B1206850E8020F216820F0805001
:104E300041E802024AB1206850E8020F216820F0E0
:104E4000805041E80202002ADAD144F64520C0F63B
:104E500000006067206850E8000F216840F02000E3
:104E600041E80002DAB1206850E8000F216840F004
:104E7000200041E8000292B1206850E8000F21684C
:104E800040F0200041E800024AB1206850E8000FDD
:104E9000216840F0200041E80002002ADAD101B088
:104EA000BDE8F08F906940F00800906101B0BDE866
:104EB000F08F00BF50E8000F216820F0806041E8CB
:104EC0000002002A3FF45EAF206850E8000F21681E
:104ED00020F0806041E80002002A3FF453AF2068D0
:104EE00050E8000F216820F0806041E80002002AAD
:104EF0003FF448AF206850E8000F216820F0806040
:104F000041E80002002A3FF43DAF2068D2E700BF2D
:104F10002046FEF741FDB4F85E0000287FF46CAF38
:104F2000BDE7000070B504460168806804F10C0517
:104F30002CCD18432843E6690B6846F6F315CCF6EA
:104F4000FF7530432B401843086048684FF2FF4517
:104F500020F440501043486042F20042A069C4F27D
:104F6000004291421CBF236A18438B68C1F2FF15AF
:104F70002B4018438860C86A636A20F00F0018430A
:104F800043F2FF73C4F201039942C86210DC44F299
:104F90000040C4F20000814218D044F60000C4F280
:104FA0000000814256D10420914216D155E000BF45
:104FB00043F60000C4F2010081420BD0914249D176
:104FC0004FF48050914208D147E000BF0220914247
:104FD00003D142E0012091423FD00021FCF748FB81
:104FE000B6F5004F1ED1002864D0616A46F6A402CF
:104FF000C0F6000232F811106268B0FBF1F05108FF
:1050000001EB4000B0FBF2F04FF6EF72A0F110019F
:10501000914253D84FF6F071C0F342020840104459
:1050200043E000BF002847D0616A46F6A402C0F6FC
:10503000000232F811106268B0FBF1F000EB520090
:10504000B0FBF2F04FF6EF72A0F1100191422CD9B3
:10505000012536E000209142BFD100210025FCF758
:1050600007FB70B3616A46F6A402C0F6000232F88C
:1050700011106268B0FBF1F002EB42010125884299
:105080001FD3110388421CD8010E000210EB5200FE
:1050900041F100010023FBF7FDF84FF60052A0F5A7
:1050A0004071C0F20F0291420AD221680025C86007
:1050B00007E000BF002504E0002502E0012500E034
:1050C00001254FF00110A066002128466167A16705
:1050D00070BD00008165A0F85C20A0F85E208168AA
:1050E0000023436751B1B1F1805F0BD0B1F5805F10
:1050F0000CD1016921B940F2FF110AE0016939B907
:10510000FF2106E0016919B13F2102E0002100E022
:105110007F21A0F860100021C0F890102221C0F873
:105120008C1000BF016851E8021FD0F800C041F0A8
:1051300001014CE80213F3B1016851E8021FD0F8F5
:1051400000C041F001014CE80213A3B1016851E82D
:10515000021FD0F800C041F001014CE8021353B126
:10516000016851E8021FD0F800C041F001014CE88D
:105170000213002BD6D1416EB1F1005F03D1B0F81C
:105180006810914240D982680169B2F5805F07D109
:10519000002947D044F64521C0F60001416707E0E9
:1051A00044F64522C0F600020029426740D000BF05
:1051B000016851E8001F026841F4907142E8001351
:1051C000002B00F0B680016851E8001F026841F42E
:1051D000907142E80013002B00F0AB80016851E8A9
:1051E000001F026841F4907142E80013002B00F0A8
:1051F000A080016851E8001F026841F4907142E804
:105200000013002BD4D194E082680169B2F5805F6D
:1052100038D1002962D044F6FD31C0F60001416763
:1052200036E000BF44F26951C0F60001416700BF9B
:10523000016851E8001F026841F0200142E80013B4
:10524000002B76D0016851E8001F026841F0200170
:1052500042E80013002B6CD0016851E8001F02687F
:1052600041F0200142E80013002B62D0016851E8B0
:10527000001F026841F0200142E80013002BD7D143
:1052800057E000BF44F6FD32C0F60002426759B352
:10529000016851E8001F026841F4807142E8001380
:1052A00013B3016851E8001F026841F4807142E8BD
:1052B0000013CBB1016851E8001F026841F480710E
:1052C00042E8001383B1016851E8001F026841F40D
:1052D000807142E80013002BDAD105E044F221711D
:1052E000C0F60001416700BF016851E8021F026873
:1052F00041F0805142E80213DBB1016851E8021F1E
:10530000026841F0805142E8021393B1016851E80C
:10531000021F026841F0805142E802134BB101685C
:1053200051E8021F026841F0805142E80213002B4D
:10533000DAD10020704700002DE9F0418046006876
:105340001546C2690E461140891BB1FA81F149091F
:10535000A94240F08380069C34B3611C2AD100BF6F
:10536000C1693140891BB1FA81F14909A94275D15E
:10537000C1693140891BB1FA81F14909A9426DD156
:10538000C1693140891BB1FA81F14909A94265D14E
:10539000C1693140891BB1FA81F14909A9421CBF99
:1053A0000020BDE8F081DBE7FBF794FB0320BDE8BC
:1053B000F08100BF1F4607E0C0693040801BB0FA93
:1053C00080F04009A84249D1FBF784FBC01BA042F2
:1053D00084BF0320BDE8F081D8F8000001684907C8
:1053E000EAD5402E18BF802EE6D0C169090739D40E
:1053F000C1690905E0D54FF40061016250E8000F72
:10540000D8F8001020F4907041E80002002A5FD024
:10541000D8F8000050E8000FD8F8001020F4907081
:1054200041E80002002A53D0D8F8000050E8000FED
:10543000D8F8001020F4907041E80002002A47D00C
:10544000D8F8000050E8000FD8F8001020F4907051
:1054500041E80002E2B3D8F80000CFE70020BDE841
:10546000F08100BF0821016250E8000FD8F8001059
:1054700020F4907041E80002002A00F09780D8F8EC
:10548000000050E8000FD8F8001020F4907041E8B8
:105490000002002A00F08A80D8F8000050E8000FCF
:1054A000D8F8001020F4907041E80002002A7DD066
:1054B000D8F8000050E8000FD8F8001020F49070E1
:1054C00041E80002002A71D0D8F80000CCE700BF04
:1054D0004FF6FE70CEF6FF70D8F8001051E8021FAC
:1054E000D8F80020014042E80213F3B1D8F80010C8
:1054F00051E8021FD8F80020014042E80213A3B18E
:10550000D8F8001051E8021FD8F80020014042E806
:10551000021353B1D8F8001051E8021FD8F8002048
:10552000014042E80213002BD6D1D8F86C000128C4
:105530002CD1D8F8000050E8000FD8F8001020F067
:10554000100041E800020AB3D8F8000050E8000F4C
:10555000D8F8001020F0100041E80002B2B1D8F8ED
:10556000000050E8000FD8F8001020F0100041E8CB
:1055700000025AB1D8F8000050E8000FD8F8001027
:1055800020F0100041E80002002AD2D120200021A2
:10559000C8F88C00C8F86C10C8F87410C8F89000EF
:1055A000032088F88410BDE8F08100BF4FF6FE703C
:1055B000CEF6FF70D8F8001051E8021FD8F800208E
:1055C000014042E80213F3B1D8F8001051E8021F7D
:1055D000D8F80020014042E80213A3B1D8F8001027
:1055E00051E8021FD8F80020014042E8021353B1ED
:1055F000D8F8001051E8021FD8F80020014042E816
:105600000213002BD6D1D8F86C0001282CD1D8F881
:10561000000050E8000FD8F8001020F0100041E81A
:1056200000020AB3D8F8000050E8000FD8F80010C4
:1056300020F0100041E80002B2B1D8F8000050E8B4
:10564000000FD8F8001020F0100041E800025AB115
:10565000D8F8000050E8000FD8F8001020F0100033
:1056600041E80002002AD2D12020C8F88C00002096
:105670000821C8F86C00C8F87400C8F8901088F8C1
:1056800084000120BDE8F08140F2BC00C2F20000BD
:10569000FDF7ACBDFEE7000080B582B0019040F29E
:1056A000BC00C2F2000001A901224FF6FF73FEF711
:1056B00083F9019802B080BD0A460F21012300F052
:1056C000D1B8000010B582B0044601208DF8070063
:1056D0000DF1070220463E21012300F085F9A16863
:1056E000044600291CBF19208847204602B010BD7F
:1056F000B0B582B00DF1070210210123044600F07D
:10570000B1F805460DF1060220461321012300F0F1
:10571000A9F8401902D002B0B0BD00BF9DF8060044
:105720009DF8071040F020008DF8060041F01000B1
:105730008DF807000DF1060220461321012300F029
:1057400053F905460DF1070220461021012300F010
:105750004BF92169284400291CBF00220A7002B0BD
:10576000B0BD0000B0B582B00D460DF106021421A7
:105770000123044600F076F810B102B0B0BD00BFBE
:105780009DF806102A786B7801F00C0141EA0210AE
:1057900003F003014FEA021C0844062A8DF80600B4
:1057A0000AD8DFE802F00505050511151B0000BF4A
:1057B00041EA0C0028E000BFA87841EA0C0100F0A3
:1057C000030041EA80001FE0A878032812D01DE002
:1057D000AA78032A0ED0022A12D017E0AA78032A48
:1057E00008D0022A0CD0012A10D141EA0C0040F066
:1057F000040009E041EA0C0040F00C0004E000BFA6
:1058000041EA0C0040F008008DF806000DF1070297
:1058100020461221012300F025F829789DF8072061
:1058200001F030011039B1FA81F1490902F0FB02AF
:1058300042EA810100288DF807107FF49EAF0DF138
:10584000060220461421012300F0CEF805460DF192
:10585000070220461221012300F0C6F8284402B0B6
:10586000B0BD0000002804BF4FF0FF30704780B586
:10587000D0F80CC0D0F804E06046F446BDE88040A3
:105880006047000070B582B00C460DF1070225217B
:1058900001230546FFF7E6FF06460DF106022846FE
:1058A00010210123FFF7DEFF06440DF10502284613
:1058B00013210123FFF7D6FF801901D002B070BD7C
:1058C0009DF806102278C1F3401102F0F80211444D
:1058D0009DF805209DF8073062F3410103F00102B5
:1058E00041EA8201217002B070BD000010B582B0A3
:1058F000044620208DF807000DF1070220461021F4
:10590000012300F071F808B102B010BDA1680029B0
:105910001CBF012088470DF10702204610210123FA
:10592000FFF7A0FF0028EFD19DF80700800603D401
:10593000002002B010BD00BFA16800291CBF0120DB
:1059400088470DF10702204610210123FFF78AFF47
:105950000028D9D19DF807008006E9D5A168002963
:105960001CBF012088470DF10702204610210123AA
:10597000FFF778FF0028C7D19DF807008006D7D52C
:10598000A16800291CBF012088470DF107022046AD
:1059900010210123FFF766FF0028B5D19DF807000D
:1059A0008006C5D5A16800291CBF012088470DF1DC
:1059B0000702204610210123FFF754FF0028A3D13E
:1059C0009DF807008006B3D5A16800291CBF0120FF
:1059D00088470DF10702204610210123FFF742FFFF
:1059E0004FF0FF3002B010BD002804BF4FF0FF3071
:1059F000704780B5D0F80CC0D0F800E06046F4469F
:105A0000BDE8804060470000B0B582B014460D4646
:105A10000DF1020228210623FFF724FF10B102B086
:105A2000B0BD00BF6A78BDF80210032AA1810BD86F
:105A3000DFE802F002161E2609B29FED261A00EEDC
:105A4000101AB8EEC00A22E001999FED230A002245
:105A5000C4F80E102260626084ED020A02B0B0BD8C
:105A600009B29FED1B1A00EE101AB8EEC00A0EE044
:105A700009B29FED161A00EE101AB8EEC00A06E041
:105A800009B29FED111A00EE101AB8EEC00ABDF966
:105A9000041020EE012ABDF9062000EE101A03EED4
:105AA000102AB8EEC00AB8EEC33A20EE014AE181EE
:105AB00084ED002A228284ED014A23EE010A84ED5E
:105AC000020A02B0B0BD00BF23DBF93E23DB793E02
:105AD00023DBF93D23DB793D0000000092B0FBF7AA
